{
  "address": "0xB1678048632801FAAe7f3c9812C6C16c07742fD8",
  "abi": [
    {
      "inputs": [
        {
          "internalType": "address[]",
          "name": "tokenAddress",
          "type": "address[]"
        },
        {
          "internalType": "address[]",
          "name": "priceFeedAddress",
          "type": "address[]"
        },
        {
          "internalType": "address",
          "name": "KAAIAddress",
          "type": "address"
        }
      ],
      "stateMutability": "nonpayable",
      "type": "constructor"
    },
    {
      "inputs": [],
      "name": "DSCEngine__healthFactorIsFine",
      "type": "error"
    },
    {
      "inputs": [],
      "name": "DSCEngine__lengthNotMatched",
      "type": "error"
    },
    {
      "inputs": [],
      "name": "DSCEngine__lessThanMinHealthFactor",
      "type": "error"
    },
    {
      "inputs": [],
      "name": "DSCEngine__mintFailed",
      "type": "error"
    },
    {
      "inputs": [],
      "name": "DSCEngine__moreThanZero",
      "type": "error"
    },
    {
      "inputs": [],
      "name": "DSCEngine__tokenNotAllowed",
      "type": "error"
    },
    {
      "inputs": [],
      "name": "DSCEngine__transferFailed",
      "type": "error"
    },
    {
      "anonymous": false,
      "inputs": [
        {
          "indexed": true,
          "internalType": "address",
          "name": "user",
          "type": "address"
        },
        {
          "indexed": true,
          "internalType": "address",
          "name": "token",
          "type": "address"
        },
        {
          "indexed": false,
          "internalType": "uint256",
          "name": "amount",
          "type": "uint256"
        }
      ],
      "name": "collateralDeposited",
      "type": "event"
    },
    {
      "anonymous": false,
      "inputs": [
        {
          "indexed": true,
          "internalType": "address",
          "name": "user",
          "type": "address"
        },
        {
          "indexed": false,
          "internalType": "uint256",
          "name": "amount",
          "type": "uint256"
        },
        {
          "indexed": true,
          "internalType": "address",
          "name": "token",
          "type": "address"
        }
      ],
      "name": "collateralRedeemed",
      "type": "event"
    },
    {
      "inputs": [
        {
          "internalType": "uint256",
          "name": "amount",
          "type": "uint256"
        }
      ],
      "name": "burnKaai",
      "outputs": [],
      "stateMutability": "nonpayable",
      "type": "function"
    },
    {
      "inputs": [
        {
          "internalType": "address",
          "name": "tokenCollateralAddress",
          "type": "address"
        },
        {
          "internalType": "uint256",
          "name": "amountCollateral",
          "type": "uint256"
        }
      ],
      "name": "depositCollateral",
      "outputs": [],
      "stateMutability": "nonpayable",
      "type": "function"
    },
    {
      "inputs": [
        {
          "internalType": "address",
          "name": "tokenCollateralAddress",
          "type": "address"
        },
        {
          "internalType": "uint256",
          "name": "amountCollateral",
          "type": "uint256"
        },
        {
          "internalType": "uint256",
          "name": "kaaiToMint",
          "type": "uint256"
        }
      ],
      "name": "depositCollateralandMintKaai",
      "outputs": [],
      "stateMutability": "nonpayable",
      "type": "function"
    },
    {
      "inputs": [],
      "name": "getAdditionalFeedPrecision",
      "outputs": [
        {
          "internalType": "uint256",
          "name": "",
          "type": "uint256"
        }
      ],
      "stateMutability": "pure",
      "type": "function"
    },
    {
      "inputs": [
        {
          "internalType": "address",
          "name": "token",
          "type": "address"
        }
      ],
      "name": "getCollateralDeposit",
      "outputs": [
        {
          "internalType": "uint256",
          "name": "",
          "type": "uint256"
        }
      ],
      "stateMutability": "view",
      "type": "function"
    },
    {
      "inputs": [
        {
          "internalType": "address",
          "name": "token",
          "type": "address"
        }
      ],
      "name": "getCollateralTokenPriceFeed",
      "outputs": [
        {
          "internalType": "address",
          "name": "",
          "type": "address"
        }
      ],
      "stateMutability": "view",
      "type": "function"
    },
    {
      "inputs": [],
      "name": "getCollateralTokens",
      "outputs": [
        {
          "internalType": "address[]",
          "name": "",
          "type": "address[]"
        }
      ],
      "stateMutability": "view",
      "type": "function"
    },
    {
      "inputs": [
        {
          "internalType": "address",
          "name": "user",
          "type": "address"
        }
      ],
      "name": "getCollateralValue",
      "outputs": [
        {
          "internalType": "uint256",
          "name": "collateralValue",
          "type": "uint256"
        }
      ],
      "stateMutability": "view",
      "type": "function"
    },
    {
      "inputs": [
        {
          "internalType": "address",
          "name": "user",
          "type": "address"
        }
      ],
      "name": "getHealthFactor",
      "outputs": [
        {
          "internalType": "uint256",
          "name": "",
          "type": "uint256"
        }
      ],
      "stateMutability": "view",
      "type": "function"
    },
    {
      "inputs": [],
      "name": "getKaai",
      "outputs": [
        {
          "internalType": "address",
          "name": "",
          "type": "address"
        }
      ],
      "stateMutability": "view",
      "type": "function"
    },
    {
      "inputs": [],
      "name": "getLiquidationBonus",
      "outputs": [
        {
          "internalType": "uint256",
          "name": "",
          "type": "uint256"
        }
      ],
      "stateMutability": "pure",
      "type": "function"
    },
    {
      "inputs": [],
      "name": "getLiquidationPrecision",
      "outputs": [
        {
          "internalType": "uint256",
          "name": "",
          "type": "uint256"
        }
      ],
      "stateMutability": "pure",
      "type": "function"
    },
    {
      "inputs": [],
      "name": "getLiquidationThreshold",
      "outputs": [
        {
          "internalType": "uint256",
          "name": "",
          "type": "uint256"
        }
      ],
      "stateMutability": "pure",
      "type": "function"
    },
    {
      "inputs": [],
      "name": "getMinHealthFactor",
      "outputs": [
        {
          "internalType": "uint256",
          "name": "",
          "type": "uint256"
        }
      ],
      "stateMutability": "pure",
      "type": "function"
    },
    {
      "inputs": [],
      "name": "getPrecision",
      "outputs": [
        {
          "internalType": "uint256",
          "name": "",
          "type": "uint256"
        }
      ],
      "stateMutability": "pure",
      "type": "function"
    },
    {
      "inputs": [
        {
          "internalType": "address",
          "name": "token",
          "type": "address"
        },
        {
          "internalType": "uint256",
          "name": "usdAmountInWei",
          "type": "uint256"
        }
      ],
      "name": "getTokenAmountFromUsd",
      "outputs": [
        {
          "internalType": "uint256",
          "name": "",
          "type": "uint256"
        }
      ],
      "stateMutability": "view",
      "type": "function"
    },
    {
      "inputs": [
        {
          "internalType": "address",
          "name": "token",
          "type": "address"
        },
        {
          "internalType": "uint256",
          "name": "amount",
          "type": "uint256"
        }
      ],
      "name": "getUsdValue",
      "outputs": [
        {
          "internalType": "uint256",
          "name": "amountInUsd",
          "type": "uint256"
        }
      ],
      "stateMutability": "view",
      "type": "function"
    },
    {
      "inputs": [
        {
          "internalType": "address",
          "name": "collateral",
          "type": "address"
        },
        {
          "internalType": "uint256",
          "name": "debtToCover",
          "type": "uint256"
        },
        {
          "internalType": "address",
          "name": "user",
          "type": "address"
        }
      ],
      "name": "liquidate",
      "outputs": [],
      "stateMutability": "nonpayable",
      "type": "function"
    },
    {
      "inputs": [
        {
          "internalType": "uint256",
          "name": "kaaiToMint",
          "type": "uint256"
        }
      ],
      "name": "mintKaai",
      "outputs": [],
      "stateMutability": "nonpayable",
      "type": "function"
    },
    {
      "inputs": [
        {
          "internalType": "address",
          "name": "tokenCollateralAddress",
          "type": "address"
        },
        {
          "internalType": "uint256",
          "name": "amountCollateral",
          "type": "uint256"
        }
      ],
      "name": "redeemCollateral",
      "outputs": [],
      "stateMutability": "nonpayable",
      "type": "function"
    },
    {
      "inputs": [
        {
          "internalType": "address",
          "name": "tokenCollateralAddress",
          "type": "address"
        },
        {
          "internalType": "uint256",
          "name": "amountCollateral",
          "type": "uint256"
        },
        {
          "internalType": "uint256",
          "name": "amountKaaiToBurn",
          "type": "uint256"
        }
      ],
      "name": "redeemCollateralForKaai",
      "outputs": [],
      "stateMutability": "nonpayable",
      "type": "function"
    }
  ],
  "transactionHash": "0xa1fc51756db424907145a22209791b6c649bb2ec081dae95057f28d6c2791b68",
  "args": [
    [
      "0x92f3b59a79bff5dc60c0d59ea13a44d082b2bdfc",
      "0xdd13e55209fd76afe204dbda4007c227904f0a81"
    ],
    [
      "0x1b44F3514812d835EB1BDB0acB33d3fA3351Ee43",
      "0x694aa1769357215de4fac081bf1f309adc325306"
    ],
    "0x7390cE074def913A5CfC543E17366BC85cDfFa17"
  ],
  "numDeployments": 1,
  "solcInputHash": "f27dbd16edf647aec361f7d0a15f4c17",
  "bytecode": "0x60a06040523480156200001157600080fd5b506040516200262938038062002629833981810160405281019062000037919062000449565b600160008190555081518351146200007b576040517f8353f9d000000000000000000000000000000000000000000000000000000000815260040160405180910390fd5b60005b835181101562000156578281815181106200009e576200009d620004e3565b5b602002602001015160026000868481518110620000c057620000bf620004e3565b5b602002602001015173ffffffffffffffffffffffffffffffffffffffff1673ffffffffffffffffffffffffffffffffffffffff16815260200190815260200160002060006101000a81548173ffffffffffffffffffffffffffffffffffffffff021916908373ffffffffffffffffffffffffffffffffffffffff16021790555080806200014d906200054b565b9150506200007e565b508073ffffffffffffffffffffffffffffffffffffffff1660808173ffffffffffffffffffffffffffffffffffffffff16815250508260049080519060200190620001a3929190620001ad565b5050505062000598565b82805482825590600052602060002090810192821562000229579160200282015b82811115620002285782518260006101000a81548173ffffffffffffffffffffffffffffffffffffffff021916908373ffffffffffffffffffffffffffffffffffffffff16021790555091602001919060010190620001ce565b5b5090506200023891906200023c565b5090565b5b80821115620002575760008160009055506001016200023d565b5090565b6000604051905090565b600080fd5b600080fd5b600080fd5b6000601f19601f8301169050919050565b7f4e487b7100000000000000000000000000000000000000000000000000000000600052604160045260246000fd5b620002bf8262000274565b810181811067ffffffffffffffff82111715620002e157620002e062000285565b5b80604052505050565b6000620002f66200025b565b9050620003048282620002b4565b919050565b600067ffffffffffffffff82111562000327576200032662000285565b5b602082029050602081019050919050565b600080fd5b600073ffffffffffffffffffffffffffffffffffffffff82169050919050565b60006200036a826200033d565b9050919050565b6200037c816200035d565b81146200038857600080fd5b50565b6000815190506200039c8162000371565b92915050565b6000620003b9620003b38462000309565b620002ea565b90508083825260208201905060208402830185811115620003df57620003de62000338565b5b835b818110156200040c5780620003f788826200038b565b845260208401935050602081019050620003e1565b5050509392505050565b600082601f8301126200042e576200042d6200026f565b5b815162000440848260208601620003a2565b91505092915050565b60008060006060848603121562000465576200046462000265565b5b600084015167ffffffffffffffff8111156200048657620004856200026a565b5b620004948682870162000416565b935050602084015167ffffffffffffffff811115620004b857620004b76200026a565b5b620004c68682870162000416565b9250506040620004d9868287016200038b565b9150509250925092565b7f4e487b7100000000000000000000000000000000000000000000000000000000600052603260045260246000fd5b7f4e487b7100000000000000000000000000000000000000000000000000000000600052601160045260246000fd5b6000819050919050565b6000620005588262000541565b91507fffffffffffffffffffffffffffffffffffffffffffffffffffffffffffffffff82036200058d576200058c62000512565b5b600182019050919050565b608051612060620005c960003960008181610dc801528181610f99015281816115a6015261167f01526120606000f3fe608060405234801561001057600080fd5b50600436106101375760003560e01c80639acd81b3116100b8578063c01998d21161007c578063c01998d21461032a578063c660d11214610348578063e5cf710b14610378578063ef04e9fc14610394578063f6b863be146103c4578063fe6bcd7c146103e057610137565b80639acd81b314610288578063a5d5db0c146102a4578063aa7d6750146102c0578063afea2e48146102dc578063b58eb63f1461030c57610137565b80636c8102c0116100ff5780636c8102c0146101e05780638c1ae6c8146101fe5780638f63d6671461021c5780639670c0bc1461023a57806397904e421461025857610137565b8063186593be1461013c5780631c08adda146101585780634914c008146101885780634ae9b8bc146101a457806359aa9e72146101c2575b600080fd5b610156600480360381019061015191906118de565b610410565b005b610172600480360381019061016d9190611931565b610428565b60405161017f919061196d565b60405180910390f35b6101a2600480360381019061019d9190611988565b610491565b005b6101ac61064c565b6040516101b991906119ea565b60405180910390f35b6101ca610655565b6040516101d791906119ea565b60405180910390f35b6101e861065e565b6040516101f591906119ea565b60405180910390f35b610206610667565b60405161021391906119ea565b60405180910390f35b610224610677565b60405161023191906119ea565b60405180910390f35b610242610684565b60405161024f91906119ea565b60405180910390f35b610272600480360381019061026d9190611931565b610694565b60405161027f91906119ea565b60405180910390f35b6102a2600480360381019061029d9190611a05565b61079f565b005b6102be60048036038101906102b99190611a05565b610849565b005b6102da60048036038101906102d59190611a45565b610bce565b005b6102f660048036038101906102f19190611a05565b610c21565b60405161030391906119ea565b60405180910390f35b610314610d36565b6040516103219190611b30565b60405180910390f35b610332610dc4565b60405161033f919061196d565b60405180910390f35b610362600480360381019061035d9190611a05565b610dec565b60405161036f91906119ea565b60405180910390f35b610392600480360381019061038d9190611a45565b610efb565b005b6103ae60048036038101906103a99190611931565b61107a565b6040516103bb91906119ea565b60405180910390f35b6103de60048036038101906103d991906118de565b611100565b005b6103fa60048036038101906103f59190611931565b611125565b60405161040791906119ea565b60405180910390f35b61041a8383610849565b61042381610efb565b505050565b6000600260008373ffffffffffffffffffffffffffffffffffffffff1673ffffffffffffffffffffffffffffffffffffffff16815260200190815260200160002060009054906101000a900473ffffffffffffffffffffffffffffffffffffffff169050919050565b81600081036104cc576040517f2a12475200000000000000000000000000000000000000000000000000000000815260040160405180910390fd5b600260005403610511576040517f08c379a000000000000000000000000000000000000000000000000000000000815260040161050890611baf565b60405180910390fd5b6002600081905550600061052483611137565b9050670de0b6b3a76400008110610567576040517f404c38d600000000000000000000000000000000000000000000000000000000815260040160405180910390fd5b60006105738686610c21565b905060006064600a836105869190611bfe565b6105909190611c6f565b90506105d16040518060400160405280600681526020017f6c697175693a0000000000000000000000000000000000000000000000000000815250836111c2565b6106106040518060400160405280600681526020017f626f6e75733a0000000000000000000000000000000000000000000000000000815250826111c2565b61062785338984866106229190611ca0565b61125e565b61063286863361154c565b61063b3361170e565b505050600160008190555050505050565b60006032905090565b6000600a905090565b60006064905090565b6000670de0b6b3a7640000905090565b60006402540be400905090565b6000670de0b6b3a7640000905090565b600080600090505b600480549050811015610799576000600482815481106106bf576106be611cd4565b5b9060005260206000200160009054906101000a900473ffffffffffffffffffffffffffffffffffffffff1690506000600160008673ffffffffffffffffffffffffffffffffffffffff1673ffffffffffffffffffffffffffffffffffffffff16815260200190815260200160002060008373ffffffffffffffffffffffffffffffffffffffff1673ffffffffffffffffffffffffffffffffffffffff1681526020019081526020016000205490506107778282610dec565b846107829190611ca0565b93505050808061079190611d03565b91505061069c565b50919050565b80600081036107da576040517f2a12475200000000000000000000000000000000000000000000000000000000815260040160405180910390fd5b60026000540361081f576040517f08c379a000000000000000000000000000000000000000000000000000000000815260040161081690611baf565b60405180910390fd5b60026000819055506108333333858561125e565b61083c3361170e565b6001600081905550505050565b8060008103610884576040517f2a12475200000000000000000000000000000000000000000000000000000000815260040160405180910390fd5b82600073ffffffffffffffffffffffffffffffffffffffff16600260008373ffffffffffffffffffffffffffffffffffffffff1673ffffffffffffffffffffffffffffffffffffffff16815260200190815260200160002060009054906101000a900473ffffffffffffffffffffffffffffffffffffffff1673ffffffffffffffffffffffffffffffffffffffff160361094a576040517fbc8b939f00000000000000000000000000000000000000000000000000000000815260040160405180910390fd5b60026000540361098f576040517f08c379a000000000000000000000000000000000000000000000000000000000815260040161098690611baf565b60405180910390fd5b600260008190555082600160003373ffffffffffffffffffffffffffffffffffffffff1673ffffffffffffffffffffffffffffffffffffffff16815260200190815260200160002060008673ffffffffffffffffffffffffffffffffffffffff1673ffffffffffffffffffffffffffffffffffffffff16815260200190815260200160002054610a1f9190611ca0565b600160003373ffffffffffffffffffffffffffffffffffffffff1673ffffffffffffffffffffffffffffffffffffffff16815260200190815260200160002060008673ffffffffffffffffffffffffffffffffffffffff1673ffffffffffffffffffffffffffffffffffffffff168152602001908152602001600020819055508373ffffffffffffffffffffffffffffffffffffffff163373ffffffffffffffffffffffffffffffffffffffff167fe4c032bd651f378a59936633a0f92b7497fd3577f65c95dc20a01acface334cc85604051610afc91906119ea565b60405180910390a360008473ffffffffffffffffffffffffffffffffffffffff166323b872dd3330876040518463ffffffff1660e01b8152600401610b4393929190611d4b565b6020604051808303816000875af1158015610b62573d6000803e3d6000fd5b505050506040513d601f19601f82011682018060405250810190610b869190611dba565b905080610bbf576040517f2c70491f00000000000000000000000000000000000000000000000000000000815260040160405180910390fd5b50600160008190555050505050565b8060008103610c09576040517f2a12475200000000000000000000000000000000000000000000000000000000815260040160405180910390fd5b610c1482333361154c565b610c1d3361170e565b5050565b600080600260008573ffffffffffffffffffffffffffffffffffffffff1673ffffffffffffffffffffffffffffffffffffffff16815260200190815260200160002060009054906101000a900473ffffffffffffffffffffffffffffffffffffffff16905060008173ffffffffffffffffffffffffffffffffffffffff1663feaf968c6040518163ffffffff1660e01b815260040160a060405180830381865afa158015610cd3573d6000803e3d6000fd5b505050506040513d601f19601f82011682018060405250810190610cf79190611e74565b5050509150506402540be40081610d0e9190611bfe565b670de0b6b3a764000085610d229190611bfe565b610d2c9190611c6f565b9250505092915050565b60606004805480602002602001604051908101604052809291908181526020018280548015610dba57602002820191906000526020600020905b8160009054906101000a900473ffffffffffffffffffffffffffffffffffffffff1673ffffffffffffffffffffffffffffffffffffffff1681526020019060010190808311610d70575b5050505050905090565b60007f0000000000000000000000000000000000000000000000000000000000000000905090565b600080600260008573ffffffffffffffffffffffffffffffffffffffff1673ffffffffffffffffffffffffffffffffffffffff16815260200190815260200160002060009054906101000a900473ffffffffffffffffffffffffffffffffffffffff1673ffffffffffffffffffffffffffffffffffffffff1663feaf968c6040518163ffffffff1660e01b815260040160a060405180830381865afa158015610e99573d6000803e3d6000fd5b505050506040513d601f19601f82011682018060405250810190610ebd9190611e74565b505050915050670de0b6b3a7640000836402540be40083610ede9190611bfe565b610ee89190611bfe565b610ef29190611c6f565b91505092915050565b8060008103610f36576040517f2a12475200000000000000000000000000000000000000000000000000000000815260040160405180910390fd5b81600360003373ffffffffffffffffffffffffffffffffffffffff1673ffffffffffffffffffffffffffffffffffffffff1681526020019081526020016000206000828254610f859190611ca0565b92505081905550610f953361170e565b60007f000000000000000000000000000000000000000000000000000000000000000073ffffffffffffffffffffffffffffffffffffffff166340c10f1933856040518363ffffffff1660e01b8152600401610ff2929190611eef565b6020604051808303816000875af1158015611011573d6000803e3d6000fd5b505050506040513d601f19601f820116820180604052508101906110359190611dba565b90506000151581151503611075576040517fc89b489200000000000000000000000000000000000000000000000000000000815260040160405180910390fd5b505050565b6000600160003373ffffffffffffffffffffffffffffffffffffffff1673ffffffffffffffffffffffffffffffffffffffff16815260200190815260200160002060008373ffffffffffffffffffffffffffffffffffffffff1673ffffffffffffffffffffffffffffffffffffffff168152602001908152602001600020549050919050565b61110b81333361154c565b6111173333858561125e565b6111203361170e565b505050565b600061113082611137565b9050919050565b6000806000611145846117a0565b915091506000820361117b577fffffffffffffffffffffffffffffffffffffffffffffffffffffffffffffffff925050506111bd565b6000606460328361118c9190611bfe565b6111969190611c6f565b905082670de0b6b3a7640000826111ad9190611bfe565b6111b79190611c6f565b93505050505b919050565b61125a82826040516024016111d8929190611f97565b6040516020818303038152906040527fb60e72cc000000000000000000000000000000000000000000000000000000007bffffffffffffffffffffffffffffffffffffffffffffffffffffffff19166020820180517bffffffffffffffffffffffffffffffffffffffffffffffffffffffff83818316178352505050506117f5565b5050565b8060008103611299576040517f2a12475200000000000000000000000000000000000000000000000000000000815260040160405180910390fd5b6112d86040518060400160405280600381526020017f6865790000000000000000000000000000000000000000000000000000000000815250836111c2565b6113936040518060400160405280600381526020017f6865650000000000000000000000000000000000000000000000000000000000815250600160008873ffffffffffffffffffffffffffffffffffffffff1673ffffffffffffffffffffffffffffffffffffffff16815260200190815260200160002060008673ffffffffffffffffffffffffffffffffffffffff1673ffffffffffffffffffffffffffffffffffffffff168152602001908152602001600020546111c2565b81600160008773ffffffffffffffffffffffffffffffffffffffff1673ffffffffffffffffffffffffffffffffffffffff16815260200190815260200160002060008573ffffffffffffffffffffffffffffffffffffffff1673ffffffffffffffffffffffffffffffffffffffff168152602001908152602001600020600082825461141f9190611fc7565b925050819055508273ffffffffffffffffffffffffffffffffffffffff168573ffffffffffffffffffffffffffffffffffffffff167fd1852118684e26537dff0c19689cdb96a0076c8290f032bc916ed8df349ad0528460405161148391906119ea565b60405180910390a360008373ffffffffffffffffffffffffffffffffffffffff1663a9059cbb86856040518363ffffffff1660e01b81526004016114c8929190611eef565b6020604051808303816000875af11580156114e7573d6000803e3d6000fd5b505050506040513d601f19601f8201168201806040525081019061150b9190611dba565b905080611544576040517f2c70491f00000000000000000000000000000000000000000000000000000000815260040160405180910390fd5b505050505050565b82600360008473ffffffffffffffffffffffffffffffffffffffff1673ffffffffffffffffffffffffffffffffffffffff168152602001908152602001600020600082825461159b9190611fc7565b9250508190555060007f000000000000000000000000000000000000000000000000000000000000000073ffffffffffffffffffffffffffffffffffffffff166323b872dd8330876040518463ffffffff1660e01b815260040161160193929190611d4b565b6020604051808303816000875af1158015611620573d6000803e3d6000fd5b505050506040513d601f19601f820116820180604052508101906116449190611dba565b90508061167d576040517f2c70491f00000000000000000000000000000000000000000000000000000000815260040160405180910390fd5b7f000000000000000000000000000000000000000000000000000000000000000073ffffffffffffffffffffffffffffffffffffffff166342966c68856040518263ffffffff1660e01b81526004016116d691906119ea565b600060405180830381600087803b1580156116f057600080fd5b505af1158015611704573d6000803e3d6000fd5b5050505050505050565b600061171982611137565b905061175a6040518060400160405280600d81526020017f6865616c7468466163746f723a00000000000000000000000000000000000000815250826111c2565b670de0b6b3a764000081101561179c576040517f56d112b100000000000000000000000000000000000000000000000000000000815260040160405180910390fd5b5050565b600080600360008473ffffffffffffffffffffffffffffffffffffffff1673ffffffffffffffffffffffffffffffffffffffff1681526020019081526020016000205491506117ee83610694565b9050915091565b61180c8161180461180f611830565b63ffffffff16565b50565b60006a636f6e736f6c652e6c6f679050600080835160208501845afa505050565b61183b819050919050565b611843611ffb565b565b600080fd5b600073ffffffffffffffffffffffffffffffffffffffff82169050919050565b60006118758261184a565b9050919050565b6118858161186a565b811461189057600080fd5b50565b6000813590506118a28161187c565b92915050565b6000819050919050565b6118bb816118a8565b81146118c657600080fd5b50565b6000813590506118d8816118b2565b92915050565b6000806000606084860312156118f7576118f6611845565b5b600061190586828701611893565b9350506020611916868287016118c9565b9250506040611927868287016118c9565b9150509250925092565b60006020828403121561194757611946611845565b5b600061195584828501611893565b91505092915050565b6119678161186a565b82525050565b6000602082019050611982600083018461195e565b92915050565b6000806000606084860312156119a1576119a0611845565b5b60006119af86828701611893565b93505060206119c0868287016118c9565b92505060406119d186828701611893565b9150509250925092565b6119e4816118a8565b82525050565b60006020820190506119ff60008301846119db565b92915050565b60008060408385031215611a1c57611a1b611845565b5b6000611a2a85828601611893565b9250506020611a3b858286016118c9565b9150509250929050565b600060208284031215611a5b57611a5a611845565b5b6000611a69848285016118c9565b91505092915050565b600081519050919050565b600082825260208201905092915050565b6000819050602082019050919050565b611aa78161186a565b82525050565b6000611ab98383611a9e565b60208301905092915050565b6000602082019050919050565b6000611add82611a72565b611ae78185611a7d565b9350611af283611a8e565b8060005b83811015611b23578151611b0a8882611aad565b9750611b1583611ac5565b925050600181019050611af6565b5085935050505092915050565b60006020820190508181036000830152611b4a8184611ad2565b905092915050565b600082825260208201905092915050565b7f5265656e7472616e637947756172643a207265656e7472616e742063616c6c00600082015250565b6000611b99601f83611b52565b9150611ba482611b63565b602082019050919050565b60006020820190508181036000830152611bc881611b8c565b9050919050565b7f4e487b7100000000000000000000000000000000000000000000000000000000600052601160045260246000fd5b6000611c09826118a8565b9150611c14836118a8565b9250828202611c22816118a8565b91508282048414831517611c3957611c38611bcf565b5b5092915050565b7f4e487b7100000000000000000000000000000000000000000000000000000000600052601260045260246000fd5b6000611c7a826118a8565b9150611c85836118a8565b925082611c9557611c94611c40565b5b828204905092915050565b6000611cab826118a8565b9150611cb6836118a8565b9250828201905080821115611cce57611ccd611bcf565b5b92915050565b7f4e487b7100000000000000000000000000000000000000000000000000000000600052603260045260246000fd5b6000611d0e826118a8565b91507fffffffffffffffffffffffffffffffffffffffffffffffffffffffffffffffff8203611d4057611d3f611bcf565b5b600182019050919050565b6000606082019050611d60600083018661195e565b611d6d602083018561195e565b611d7a60408301846119db565b949350505050565b60008115159050919050565b611d9781611d82565b8114611da257600080fd5b50565b600081519050611db481611d8e565b92915050565b600060208284031215611dd057611dcf611845565b5b6000611dde84828501611da5565b91505092915050565b600069ffffffffffffffffffff82169050919050565b611e0681611de7565b8114611e1157600080fd5b50565b600081519050611e2381611dfd565b92915050565b6000819050919050565b611e3c81611e29565b8114611e4757600080fd5b50565b600081519050611e5981611e33565b92915050565b600081519050611e6e816118b2565b92915050565b600080600080600060a08688031215611e9057611e8f611845565b5b6000611e9e88828901611e14565b9550506020611eaf88828901611e4a565b9450506040611ec088828901611e5f565b9350506060611ed188828901611e5f565b9250506080611ee288828901611e14565b9150509295509295909350565b6000604082019050611f04600083018561195e565b611f1160208301846119db565b9392505050565b600081519050919050565b60005b83811015611f41578082015181840152602081019050611f26565b60008484015250505050565b6000601f19601f8301169050919050565b6000611f6982611f18565b611f738185611b52565b9350611f83818560208601611f23565b611f8c81611f4d565b840191505092915050565b60006040820190508181036000830152611fb18185611f5e565b9050611fc060208301846119db565b9392505050565b6000611fd2826118a8565b9150611fdd836118a8565b9250828203905081811115611ff557611ff4611bcf565b5b92915050565b7f4e487b7100000000000000000000000000000000000000000000000000000000600052605160045260246000fdfea2646970667358221220c88d316c9642f791dc3d29e06ddb267fd585cfe0c0bd1d7dfb2960a29d65259764736f6c63430008120033",
  "devdoc": {
    "kind": "dev",
    "methods": {},
    "version": 1
  },
  "userdoc": {
    "kind": "user",
    "methods": {},
    "version": 1
  },
  "storageLayout": {
    "storage": [
      {
        "astId": 431,
        "contract": "contracts/KAAIEngine.sol:KAAIEngine",
        "label": "_status",
        "offset": 0,
        "slot": "0",
        "type": "t_uint256"
      },
      {
        "astId": 1282,
        "contract": "contracts/KAAIEngine.sol:KAAIEngine",
        "label": "s_collateralDeposit",
        "offset": 0,
        "slot": "1",
        "type": "t_mapping(t_address,t_mapping(t_address,t_uint256))"
      },
      {
        "astId": 1286,
        "contract": "contracts/KAAIEngine.sol:KAAIEngine",
        "label": "s_priceFeeds",
        "offset": 0,
        "slot": "2",
        "type": "t_mapping(t_address,t_address)"
      },
      {
        "astId": 1290,
        "contract": "contracts/KAAIEngine.sol:KAAIEngine",
        "label": "s_kaaiMinted",
        "offset": 0,
        "slot": "3",
        "type": "t_mapping(t_address,t_uint256)"
      },
      {
        "astId": 1293,
        "contract": "contracts/KAAIEngine.sol:KAAIEngine",
        "label": "s_collateralTokens",
        "offset": 0,
        "slot": "4",
        "type": "t_array(t_address)dyn_storage"
      }
    ],
    "types": {
      "t_address": {
        "encoding": "inplace",
        "label": "address",
        "numberOfBytes": "20"
      },
      "t_array(t_address)dyn_storage": {
        "base": "t_address",
        "encoding": "dynamic_array",
        "label": "address[]",
        "numberOfBytes": "32"
      },
      "t_mapping(t_address,t_address)": {
        "encoding": "mapping",
        "key": "t_address",
        "label": "mapping(address => address)",
        "numberOfBytes": "32",
        "value": "t_address"
      },
      "t_mapping(t_address,t_mapping(t_address,t_uint256))": {
        "encoding": "mapping",
        "key": "t_address",
        "label": "mapping(address => mapping(address => uint256))",
        "numberOfBytes": "32",
        "value": "t_mapping(t_address,t_uint256)"
      },
      "t_mapping(t_address,t_uint256)": {
        "encoding": "mapping",
        "key": "t_address",
        "label": "mapping(address => uint256)",
        "numberOfBytes": "32",
        "value": "t_uint256"
      },
      "t_uint256": {
        "encoding": "inplace",
        "label": "uint256",
        "numberOfBytes": "32"
      }
    }
  }
}